:020000040800F2
:10000000300A00200101000897260008CD210008D1
:100010009526000811080008512C00080000000077
:10002000000000000000000000000000B5260008ED
:100030009B0800080000000099260008B726000869
:100040001B0100081B0100081B0100081B01000820
:100050001B0100081B0100081B0100081B01000810
:100060001B0100081B0100081B0100081B01000800
:1000700059080008650800081B0100081B0100085A
:100080001B0100081B0100081B0100081B010008E0
:100090001B0100081B0100081B0100081B010008D0
:1000A0001B0100081B0100081B0100081B010008C0
:1000B0001B0100081B0100081B0100081B010008B0
:1000C0001B0100081B0100081B0100081B010008A0
:1000D0001B0100081B0100081B010008292C000857
:1000E0001B0100081B0100081B010008DFF80CD0F1
:1000F00000F0A6F90048004741320008300A00200D
:100100000648804706480047FEE7FEE7FEE7FEE7B1
:10011000FEE7FEE7FEE7FEE7FEE7FEE71D27000835
:10012000ED000008202A04DB203A21FA02F0002129
:10013000704721FA02F3D040C2F1200291400843F7
:100140001946704740EA01039B0703D009E008C93C
:10015000121F08C0042AFAD203E011F8013B00F88C
:10016000013B521EF9D27047D2B201E000F8012BD8
:10017000491EFBD270470022F6E710B513460A4627
:1001800004461946FFF7F0FF204610BDF0B480EAA0
:100190000102D40F4200B2EB410F02D202460846E0
:1001A00011464A0042D0C30DDDB2C1F3C752AD1AA9
:1001B000202D35DAC1F3160141F4000204B1524298
:1001C000C5F1200602FA06F12A411044B3EBD05FD4
:1001D00023D0C4B1012DA0EBC35009DCF0BC4FF01B
:1001E000004202EAC352DBB200F5000000F0FAB8A8
:1001F000400000F1807000EBC350A0F1807040EA35
:10020000D170490009E0490841EAC071A0EBC35030
:1002100000F50000400800EBC350F0BC00F0D9B876
:100220006142012202EB4101001BF6E7F0BC70477E
:1002300081F00041AAE780F00040A7E780EA0102D0
:1002400010B502F00043400022D04A001FD0010E3A
:1002500001EB1261C0F35600C2F3560240F40000F5
:1002600042F40002A0FB022000047F39140400D0F5
:10027000401C50EA124001D44000491EC2B20C0694
:1002800004EBD010401C4008802A02D003E000207C
:1002900010BD20F00100002900DA0020184310BD35
:1002A00030B480EA010202F0004530F0004221F053
:1002B000004013D090B1C30DD40DC2F31601C0F3AA
:1002C0001600E41A41F4000140F400027D3491422A
:1002D00001D3641C00E04900002C02DA30BC00208D
:1002E00070474FF400000023914201D3891A034361
:1002F00040084FEA4101F7D151B1914202D14FF08C
:10030000004105E002D24FF0010101E06FF0010170
:1003100003EBC450284430BC00F05BB8420005D069
:10032000C0F3C7525242914201DC0020704700EBFB
:10033000C150704796230022114600F053B800F0D8
:10034000004220F00040C10DC0F3160040F4000050
:100350007F2901DA00207047962903DCC1F196015C
:10036000C84001E096398840002AF4D040427047E6
:100370002DE9F05F0546002092469B4688460646DA
:10038000814640241BE02846414647462246FFF767
:10039000C9FE53465A46C01A914110D31146184619
:1003A000224600F05FF82D1A67EB01084F462246FF
:1003B0000120002100F056F817EB00094E41201EE5
:1003C000A4F10104DFDC484631462A464346BDE835
:1003D000F09F0029A8BF7047401C490008BF20F0CB
:1003E0000100704710B4B0FA80FC00FA0CF050EA3B
:1003F000010404BF10BC704749B1CCF1200421FABC
:1004000004F411FA0CF118BF012121430843A3EBB6
:100410000C01CB1D4FEA00614FEA102042BF0020C3
:1004200010BC704700EBC35010440029A4BF10BC9F
:100430007047401C490008BF20F0010010BC704705
:10044000064C074D06E0E06840F0010394E8070021
:1004500098471034AC42F6D3FFF74CFE50360008F4
:1004600070360008202A04DB203A00FA02F100204E
:1004700070479140C2F1200320FA03F319439040E2
:10048000704700002DE9F0411E4802F006F964288B
:1004900035D91C4802F008F91B4F0025002407EB52
:1004A00045061A4800F0D0FB3221184800F034FB12
:1004B00014B1012C05D008E0144800F06FFAF08167
:1004C00003E0124800F06AFAB080641CE4B2022C27
:1004D000E7D30E4800F018FC6D1CEDB2052DDDD3FE
:1004E00002F04AFE3C46FA1CB91C02F023FF02F05F
:1004F00019FE621CBDE8F041034902F01BBFBDE8D4
:10050000F08100003800002086040020A0040020B4
:1005100070B5044600688168C943C9071CD1816869
:1005200021F00101816000F08BFE05460FE000BF65
:1005300000F086FE401B022809D9A06A40F0100096
:10054000A062E06A40F00100E062012070BD206816
:100550008068C043C007EBD0002070BDF8B500260E
:100560000446009600688168C943C90728D081689D
:1005700041F001018160134813490068B0FBF1F0BC
:1005800000E0401E00900028FBD100F059FE054617
:1005900011E000BF00F054FE401B02280BD9A06AF6
:1005A00040F01000A062E06A40F00100E06284F8D0
:1005B00024600120F8BD20688068C043C007E9D1ED
:1005C0000020F8BD4800002040420F00F0B53F4930
:1005D000054600784A7887B0E2B901281AD03CA0D5
:1005E00002F038FB182240496846FFF7ABFD9DF842
:1005F00002209DF803009DF80410104408448DF873
:1006000005004FF6FF7369463848121D01F080FD62
:1006100007B0F0BD00244FF47A760628F8D2DFE860
:1006200000F0030426394150F2E768780870E0B121
:10063000002048700028EBD1012280212C4800F0D6
:10064000F9FD8DF80440012301AA5E212948009696
:1006500000F0B6FE00252C46641CE0B2294602F0EC
:1006600023FEE4B2082CF7D3D2E70120E1E700240F
:10067000A878E04000F00106671CF8B2314602F0AD
:1006800013FE324621461CA002F0E4FAFCB2082C0C
:10069000EED3BDE7A87800F001028A70C0F34000F5
:1006A0000871B5E70C70A8787F2800D97F208DF8F5
:1006B0000400012301AA5E210E48009600F080FE8E
:1006C000A6E7A87800B10120C870A1E700000020CB
:1006D0000D0A2069742773206E6F74207374617221
:1006E0007420776F726B2E0020360008640500209E
:1006F00000080140D00400200D0A693D25642C73D8
:10070000773D25640000000010B540F20C4114480C
:10071000FFF731FD124C0020A4F80804A4F80A04E5
:10072000A4F806044FF48060A4F80204A4F80404BA
:100730000C48C0680168CA6842F01002CA60B4F888
:100740000834611CB4F80424194401F093FC06A099
:1007500002F080FA01202070BDE8104000F05AB885
:1007600050000020000000200D0A425420436F6D0D
:100770006D616E645F554152545F496E697420210A
:100780002121000070B51A4DE86801680A684968BF
:1007900001F0EEFA174800684068174CB4F80424DA
:1007A000B4F80814101A084481B2A4F8081413A06D
:1007B00004F2024402F04EFA2088E188A4F20244D6
:1007C000401A4FF48071FF2804DCA4F806040020CE
:1007D000A4F80804A4F804148AB20748B4F808146A
:1007E000401C0144E868BDE8704001F043BC0000D3
:1007F00000000020A4050020500000200D0A4254F3
:10080000206972712072784C656E3A202564000070
:10081000FEE7000010B5074C2078002808D106A09C
:1008200002F018FA0B48C06801F058FB0120207054
:1008300010BD0000500000200D0A425420436F6D8F
:100840006D616E645F554152545F496E6974202139
:100850002121000000000020014800F0DFBA000064
:10086000E8050020014800F0D9BA0000A4050020E6
:1008700030B590F840500124AC40C56B6C60046802
:1008800063604368102B036803D099600068C260FE
:1008900030BD9A600068C16030BD7047704700008D
:1008A000F8B50024009490F824202546012A12D09F
:1008B000012280F824204A681F23072A0DD20668E7
:1008C000776B521E02EB820293409F430B6893406A
:1008D0001F43776319E00220F8BD06680D2A0AD28B
:1008E000376BD21F02EB820293409F430B68934009
:1008F0001F43376309E0F76A0D3A02EB8202934027
:100900009F430B6893401F43F7620A6807230668FA
:100910000A2A0AD3F7680A3A02EB420293409F433D
:100920008B6893401F43F76008E0376902EB42028F
:1009300093409F438B6893401F4337610A68102A96
:1009400001D0112A20D1124B02689A4217D1936824
:100950001B0219D4936843F40003936009681029BB
:1009600012D10C490C4A0968B1FBF2F101EB81018B
:10097000490000E0491E00910029FBD104E0816A92
:1009800041F020018162012480F824502046F8BD06
:10099000002401404800002040420F000068C06C65
:1009A000704700002DE9F0414FF0000704003D467C
:1009B0007ED0A06A002628B9E66284F8246020462A
:1009C00000F07EF82046FFF7A3FDA16AC90600D417
:1009D00020B1A06A40F01000A06269E0A16A21F491
:1009E000885141F00201A1626268E169237B0A43F8
:1009F00047EA43010A43A1684FF48077B94209D01E
:100A0000012907D05FF0000194F814C0BCF1010F78
:100A100002D00AE03946F7E7F3B1A36A43F02003B6
:100A2000A362E36A43F00103E3622368D3F804C0DE
:100A30002CF4694C4CEA010CC3F804C021688B68A3
:100A4000DFF870C003EA0C0313438B60A168B9425E
:100A50000BD0012909D00CE0DFF85CC0A3690CEBD6
:100A600043330B4343F40061DFE7218A0D05A5F50D
:100A700080152168CB6A23F470032B43CB62216875
:100A800089680E4B1940914208D1E662A16A21F0B3
:100A9000020141F00101A162BDE8F081A06A20F0ED
:100AA000020040F01000A062E06A40F00100E06245
:100AB0000120F1E7FDF7E1FF00E0FFFFFE0E1FFF61
:100AC00000B585B000210091019102910391006869
:100AD0000E49884218D10E48816941F40071816144
:100AE000816901F400710491816941F0040181611F
:100AF0008069694600F004000490302000900320D3
:100B00000190044800F09AFA05B000BD00240140AD
:100B100000100240000801402DE9F84300260D4670
:100B20000446009600F08CFB804620688168C90569
:100B300008D5A06A40F02000A06284F8246001205B
:100B4000BDE8F8834168C90503D4C06A10F4700F8A
:100B500026D0022000F0A2FD38490968B1FBF0F769
:100B60002068036936490B424FEA61014FEAA1123E
:100B70001BD1C3684FEA611C13EA0C0F15D103693E
:100B80000B4221D1C06810421ED114201FE0681C06
:100B900006D045B300F054FBA0EB0800A84222D8D1
:100BA000206800688007F2D52AE003690B4202D171
:100BB000C168114206D0026922490A4206D1C068C2
:100BC000084203D1542002E0292000E0FC204743E2
:100BD000009813E0681C0ED02DB100F031FBA0EBA3
:100BE0000800A84207D9A06A40F00400A06284F877
:100BF00024600320A4E70098401C0090B842E9D389
:100C000021686FF012000860A06A40F40070A062D2
:100C100020688068C0F3424007280CD1207B50B97F
:100C2000A06A20F48070A062A06AC00403D4A06A05
:100C300040F00100A062002082E700004800002090
:100C4000244992244992240070B5044690F8240067
:100C500001280DD0012084F824002046FFF77EFCF7
:100C600002004FF0000005D084F82400104670BD4B
:100C7000022070BDA16A40F20123994341F48071C2
:100C8000A1621F4D23681F49AB4218D10E6816F4AC
:100C9000702F14D0A66A46F48016A6620E687605F8
:100CA00005D5A66A26F4005646F48056A662A66AC2
:100CB000F6040AD5E66A26F00606E66206E0A66AAB
:100CC00026F48016A6625E68E9E7E06284F82400F4
:100CD0006FF00200186020688368C3F34243072B5B
:100CE00005D1A84208D1096811F4702F04D0816899
:100CF00041F480118160B9E7816841F4A001F9E70E
:100D0000002801400424014010B5044690F8240056
:100D1000012807D0012084F824002046FFF7F8FBC3
:100D200010B107E0022010BDA16A21F4885141F002
:100D30000101A162002184F8241010BD10B590F8C3
:100D400021100022022905D00421816380F820208F
:100D5000012010BD01680B6823F00E030B600168D1
:100D60000B6823F001030B6090F84030C46B012145
:100D700001FA03F3636080F8211080F82020104608
:100D800010BD000010B590F821100024022903D0F6
:100D90000421816301243DE001680A6822F00E020B
:100DA0000A6001680A6822F001020A601A4A0168B2
:100DB000914201D1012121E0174A1432914201D11F
:100DC00010211BE0144A2832914201D1891515E007
:100DD000114A3C32914201D189140FE00E4A50323F
:100DE000914202D14FF4803108E00B4A64329142C3
:100DF00002D14FF4801101E04FF08071064A083AA9
:100E00005160012180F82110002180F82010416BF1
:100E100001B18847204610BD080002402DE9F05F6F
:100E2000C16B0C6801680B68D0F840C0042202FA5C
:100E30000CF2494DDFF824A1494E4A4FDFF828B1A2
:100E4000DFF828E122422CD05A072AD50A689206F8
:100E500003D40A6822F004020A600168A94201D1A1
:100E6000042219E0514501D1402215E0B14202D1DE
:100E70004FF4806210E0B94202D14FF480420BE09F
:100E8000594502D14FF4802206E0714502D14FF45A
:100E9000800201E04FF080622F4908394A60C16A40
:100EA0003BE04FF0020808FA0CF818EA040F4FF084
:100EB00000094FF0010235D05FEA837832D50B6824
:100EC0009B0605D40B6823F00A030B6080F82120F1
:100ED0000168A94201D1022219E0514501D1202225
:100EE00015E0B14202D14FF4007210E0B94202D1D4
:100EF0004FF400520BE0594502D14FF4003206E0A6
:100F0000714502D14FF4001201E04FF00072124916
:100F100008394A6080F82090816A00291AD0BDE81B
:100F2000F05F0847082505FA0CF5254212D01B078B
:100F300010D50B6823F00E030B6090F84010C36BC4
:100F400002FA01F15960826380F8212080F8209034
:100F5000016BE2E7BDE8F09F080002401C00024080
:100F60003000024044000240580002406C00024041
:100F700030B528B308C8134914221944B1FBF2F163
:100F80008900C16310498163022141771A6843F6E1
:100F9000F0718A43D0E900142143D0E902452C4383
:100FA0002143046921434469214384692143114356
:100FB000196000214163012242770177084630BD64
:100FC000012030BDF8FFFDBF0000024070B50446AF
:100FD00090F82000002501280CD0012084F8200082
:100FE00094F821600020012E06D084F8200002250C
:100FF000284670BD022070BD022684F82160A063DF
:101000002068066826F0010606602046FFF730FCDF
:10101000E06A00282068016802D041F00E0106E075
:1010200021F0040101602068016841F00A010160BB
:101030002068016841F001010160D9E72DE9F84F0E
:10104000DFF8B891002409F1040A0AF1040B2346E1
:101050000F270BF1040EC9E00125A5402A40AA4242
:101060007DD1674ED1F804C0ACEB0608B44532D050
:1010700014DCBCF1030F3AD009DCBCF1000F2AD01C
:10108000BCF1010F1CD0BCF1020F31D11DE0BCF14D
:10109000110F17D0BCF1120F2AD119E0B8F5881F33
:1010A00019D006DCB8F5803F15D0B8F5801F1FD1E8
:1010B00011E0B8F5001F0ED0B8F5041F18D10AE0F2
:1010C000CB6815E0CB681B1D12E0CB6808330FE03E
:1010D000CB680C330CE08B682BB1012B4FF008036D
:1010E00003D0456104E0042302E0056100E0002331
:1010F000FF2A01D8064601E000F104064FEA840504
:1011000001D9A5F12005D6F8008007FA05FC28EAE8
:101110000C0803FA05F548EA0508C6F800804D6892
:10112000ED0062D5374DAE6946F00106AE61AD699E
:1011300024F0030605F001050095334D06EB050C80
:10114000DCF80850A607360F07FA06F825EA080566
:10115000DFF8B880404503D14FF0000817E044E0C5
:10116000DFF8AC80404502D14FF001080FE0DFF816
:10117000A480404502D14FF0020808E0DFF89880D3
:10118000404502D14FF0030801E04FF0040808FA8F
:1011900006F848EA0508CCF808804D68D9F80060E0
:1011A000ED034D4601D5164300E096432E604D6891
:1011B000DAF80060AD03554601D5164300E09643CA
:1011C0002E604D68DBF80060ED025D4601D51643E8
:1011D00000E096432E604D68DEF80060AD02754673
:1011E00001D5164300E096432E60641C0D682A4624
:1011F000E5407FF431AFBDE8F88F00000004014006
:1012000000001110001002400000014000080140E1
:10121000000C0140001001400014014080680840AB
:1012200000D001207047C2680A4201D04161704776
:10123000016170470AB1016170470904FBE70000D2
:1012400001488068704700003C00002070B5040031
:101250001BD094F83D00002520B984F83C5020466E
:1012600000F044F9242084F83D002068016821F052
:101270000101016000F082FB4D4A6168914201D892
:101280004C4900E04C49884201D2012070BD4B49D5
:101290002368B0FBF1F15E6826F03F060E435E6006
:1012A0006368934206D94FF4967359434FF47A73A7
:1012B000B1FBF3F12368491C1E6A26F03F06314357
:1012C00019626168914210D84900401EB0FBF1F2EA
:1012D000521CC2F30B02042A01D2042022E0B0FB0C
:1012E000F1F0401CC0F30B001CE0A368F3B301EB6A
:1012F000C10202EB0116421EB2FBF6F2521C42F48E
:101300008042120549D093B301EBC10202EB0111F7
:10131000401EB0FBF1F0401CC0F30B0040F48040D5
:1013200040F400402168CA694CF6FF739A431043A9
:10133000C861D4E90701084321680A6822F0C002A5
:1013400010430860D4E9030101432068826848F231
:10135000FF339A4311438160D4E9050108432168B2
:10136000CA6822F0FF021043C86001E00EE016E0F8
:101370002068016841F0010101602564202084F8A3
:101380003D00256384F83E50002070BD01EB41060E
:10139000421EB2FBF6F2521CB3E70120C2E701EB9A
:1013A0004101401EB0FBF1F0401CC0F30B00B7E759
:1013B000A086010080841E0000093D0040420F000D
:1013C0002DE9F84F1F4690468A460446DDF82890DE
:1013D000FFF736FF054694F83D0020287FD11923FA
:1013E000012240492046009500F072FF002876D186
:1013F00094F83C00012872D0012084F83C00206859
:101400000168C90703D1016841F00101016020684A
:10141000016821F400610160212084F83D00102062
:1014200084F83E0000262664C4F824806785608D19
:1014300020852D48E0622B464A465146204600F062
:10144000DDFE90B9206841698069009036E02A4647
:101450004946204600F0BBFF50B1206C042804D15F
:101460002068016841F4007101600120BDE8F88F37
:10147000606A216800780861606A401C6062618D62
:10148000491E6185218D491E89B2218522685369D3
:10149000DB435B070BD451B100781061606A401CDC
:1014A0006062608D401E6085208D401E20852A462A
:1014B0004946204600F0E6FE0028CED1208D0028C7
:1014C000C5D154F83D0B016841F400710160202042
:1014D00004F81E09E67766770020C7E7FFE70220D9
:1014E000C4E70000020010000000FFFF10B586B046
:1014F00000210091019102910391006817498842EF
:101500002AD1174CE06940F40010E061E06900F472
:1015100000100490A06940F00800A061A06969462D
:1015200000F0080004904FF44070009012200190E9
:10153000032003900B48FFF781FD0B48416841F001
:10154000E06141F002014160E06940F40010E061B7
:10155000E06900F40010049006B010BD0054004093
:1015600000100240000C0140000001400248816868
:1015700002781144816070473C000020074810B594
:10158000016841F010010160032000F075F80020AF
:1015900000F006F800F024F8002010BD0020024002
:1015A00070B50D4D04464FF47A712878B1FBF0F018
:1015B0000A490968B1FBF0F000F0C6FB48B9102CED
:1015C00007D200222146501E00F036F800206C6041
:1015D00070BD012070BD00003C00002048000020CC
:1015E0000C4808B5816941F001018161816901F010
:1015F00001010091C16941F08051C161C06900F0F1
:10160000805000900448416821F0E06141F0007191
:10161000416008BD0010024000000140002809DBC5
:1016200000F01F02012191404009800000F1E020FC
:10163000C0F8001170470000F0B40E4B1B680C4658
:10164000C3F30223C3F10705042D00D90425191D96
:10165000072901D2002300E0DB1E012606FA05F16E
:10166000491E214099409E40761E16403143F0BCF1
:1016700001F000BB0CED00E0064900F0070208682D
:101680004FF6FF03184040EA0220034A1043086067
:10169000704700000CED00E00000FA0510B529A429
:1016A00001461DCC86B08DE81D002AA02A4C00689A
:1016B00004900020012923D002293AD010291DD1FD
:1016C00061682268D20119D5C1F38342C9031DF8AC
:1016D000020009D5616804AAC1F34041515C1F4A68
:1016E000B2FBF1F1484301E01D49484361684902FA
:1016F00004D440005FF00301B0FBF1F006B010BD70
:10170000226AC2F30121012903D1920701D5C8033E
:10171000F4E7022905D1626A920702D549F64040F2
:10172000ECE70329EAD121688903E7D54FF2244089
:10173000E4E700F033F96168C1F38131491C4900E5
:10174000DAE7000002030405060708090A0B0C0D7E
:101750000E0F1010010200000010024000127A006B
:1017600000093D002DE9F84305460078354CC007D7
:1017700054D0E0690026C00008D4E06940F08050F1
:10178000E061E069012600F0805000902E48016879
:10179000C90512D40168804641F480710160FFF7E9
:1017A0004FFD074605E000BFFFF74AFDC01B642858
:1017B00023D8D8F80000C005F6D5206A10F4407090
:1017C00021D0A98801F4407181421CD0206A1F49B0
:1017D000012220F440700A6000220A602062C007E3
:1017E00011D0FFF72DFD074641F2883808E000BF11
:1017F000FFF726FDC11B414502D90320BDE8F88350
:10180000206A8007F4D5206A696820F44070084394
:1018100020621EB1E06920F08050E06128788007E6
:1018200005D56068A96820F44040084360602878C6
:10183000C00605D56068E96820F480000843606050
:101840000020DBE7001002400070004040044242EC
:101850002DE9F0470F46050061D0434E306800F097
:101860000700B84209D2306820F0070038433060E2
:10187000306800F00700B84251D128683B4C81071E
:1018800012D5400703D5606840F4E06060602878B6
:10189000000703D5606840F4605060606068A96824
:1018A00020F0F000084360602878C00728D06868FE
:1018B000012810D02168022810D0890700292EDACB
:1018C000616821F0030101436160FFF7B9FC8046C4
:1018D00041F288390DE021688903EFE78901EDE7DE
:1018E000FFF7AEFCA0EB0801494502D90320BDE893
:1018F000F0876068696800F00C00B0EB810FEFD1F1
:10190000306800F00700B8420BD9306820F00700BB
:1019100038433060306800F00700B84201D0012041
:10192000E5E72878400705D56068E96820F4E060BD
:10193000084360602878000706D56068296920F4AC
:10194000605040EAC100606000F038F86168084A01
:10195000C1F30311515CC84006490860064800689D
:10196000FFF71EFE0020C2E70020024000100240E8
:101970003536000848000020400000200448054992
:1019800000684968044AC1F30221515CC8407047AD
:101990004800002000100240453600080448054970
:1019A00000684968044AC1F3C221515CC8407047CD
:1019B00048000020001002404536000812A185B002
:1019C0000FC98DE80F0014A0144A006804905168F4
:1019D000134801F00C03042B10D0082B0ED1C1F3D7
:1019E0008343C9031DF803000AD5516804AAC1F353
:1019F0004041515C0A4A5043B0FBF1F005B07047DA
:101A000008494843FAE700000203040506070809ED
:101A10000A0B0C0D0E0F1010010200000010024006
:101A200000127A0000093D002DE9F84F040070D043
:101A30002078C04DC00749D06868C0F381000128F4
:101A400007D06868C0F38100022809D16868C00324
:101A500006D52868800339D560680028E7D035E0CE
:101A60006068B0F5803F0BD010B1B0F5A02F11D059
:101A7000286820F480302860286820F4802002E064
:101A8000286840F480302860606890B1FFF7D8FB88
:101A900006460AE0286840F480202860F0E700BF8E
:101AA000FFF7CEFB801B642873D828688003F7D526
:101AB0000CE0FFF7C5FB064605E000BFFFF7C0FBE3
:101AC000801B6428F0D828688003F7D420789A4EC9
:101AD00080074FF001094FF0000839D5686810F011
:101AE0000C0F07D06868C0F38100022809D168682C
:101AF000C00306D42868800714D52069012808D1BE
:101B000010E02069B0B1C6F80090FFF799FB0746D6
:101B100005E00AE1FFF794FBC01B0228C4D828683F
:101B20008007F7D52868616920F0F80040EAC10015
:101B300028600DE0C6F80080FFF782FB074604E04E
:101B4000FFF77EFBC01B022823D828688007F7D444
:101B5000207800072CD57948A169D9B1C0F8009048
:101B6000FFF76EFB074604E0FFF76AFBC01B022885
:101B70000FD8686A8007F7D571484FF4FA510068AA
:101B8000B0FBF1F0009000BF0098411E0091FAD226
:101B90000EE080E0C0F80080FFF752FB074604E04B
:101BA000FFF74EFBC01B022875D8686A8007F7D480
:101BB0002078400760D5E8690027C00008D4E869AC
:101BC00040F08050E861E869012700F08050009003
:101BD0005C480168C90513D40168834641F48071EB
:101BE0000160FFF72DFB824606E000BFFFF728FBF0
:101BF000A0EB0A0064284ED8DBF80000C005F5D53C
:101C0000E06801280AD008B1052813D0286A20F01E
:101C100001002862286A20F0040002E0286A40F0EF
:101C200001002862E06841F2883B98B1FFF708FBA9
:101C300082460BE0286A40F004002862EEE700BF0D
:101C4000FFF7FEFAA0EB0A0159455AD8286A800727
:101C5000F6D50CE0FFF7F4FA824605E0FFF7F0FA5C
:101C6000A0EB0A0159454CD8286A8007F6D41FB169
:101C7000E86920F08050E861E06988B36968C1F3E1
:101C80008101022944D00228C6F8608004D0FFF701
:101C9000D7FA044638E034E0FFF7D2FA074604E00A
:101CA000FFF7CEFAC01B02282BD828688001F7D492
:101CB000206AB0F5803F05D16868A16820F4003043
:101CC00008436860D4E908010843696821F4741185
:101CD00008436860C6F86090FFF7B2FA044606E071
:101CE00025E000BFFFF7ACFA001B022809D82868DE
:101CF0008001F7D51BE000BFFFF7A2FA001B022806
:101D000002D90320BDE8F88F28688001F4D40EE0E2
:101D10000128F7D06868226A00F48031914204D12A
:101D2000616A00F47010884201D00120EAE70020C7
:101D3000E8E70000001002400000424280044242F6
:101D4000480000200070004010B5401EB0F1807FB8
:101D500001D3012010BD4FF0E02460610F21601716
:101D600000F088FF0020A06107202061002010BD46
:101D700010B504460068416994F83920C1F3C011D8
:101D8000212A0BD151B1416921F080014161206BC1
:101D900008B1FEF7D3FF204600F032FE206841690B
:101DA00094F83A20C1F38011222A0BD151B1416934
:101DB00021F040014161606B08B1FEF7BFFF204692
:101DC00000F010FE002010BD7047000070B50268E2
:101DD00004461068D168536910F00F0F50D003F01B
:101DE000010501F4907635435DD0C20705D0CA05E0
:101DF00003D5E26B42F00102E263420705D5DA0740
:101E000003D0E26B42F00202E263820705D5DA07F3
:101E100003D0E26B42F00402E263020705D5DA0761
:101E200003D0E26B42F00802E263E26B002A33D097
:101E3000800604D5880602D5204600F0EAFD206819
:101E40004069E16BC0F38010090700D428B3204635
:101E500000F0C8FD2068416949061AD5416921F0A2
:101E600040014161606BA0B11B494163606BFEF7AB
:101E700089FF002810D0606B416BBDE870400847B7
:101E8000830610D58B060ED52046BDE8704000F0C5
:101E9000C0BD2046FFF798FF70BD2046FFF794FFB6
:101EA0000020E06370BD030606D50B0604D520466E
:101EB000BDE8704000F054BE4006F3D54806F1D5A9
:101EC000D168204621F04001D160202184F83910EA
:101ED00000F07BF970BD00004529000870B50400D2
:101EE00004D094F83900002510B106E0012070BD3F
:101EF00084F83850204600F023F8242084F8390074
:101F00002068C16821F40051C160204600F0CCFD7A
:101F10002068016921F4904101612068416921F044
:101F20002A0141612068C16841F40051C160E56344
:101F3000202084F8390084F83A00002070BD0000A9
:101F40002DE9F04186B0002400940194029403949A
:101F50000646414D0368414902200322AB4223D18A
:101F6000CB6943F40033CB61CB6903F400330493B2
:101F70008B6943F004038B618969394D01F00401D9
:101F800004910421CDE90010039269462846FFF729
:101F900055F80820CDE90004694628460294FFF769
:101FA0004DF806B0BDE8F0812E4DAB42F9D1CB69BA
:101FB00043F48023CB61CB6903F4802304938B69C2
:101FC00043F008038B618969039201F008010491D1
:101FD0002915CDE90010244D69462846FFF72EF853
:101FE000E814CDE90004694628460294FFF726F874
:101FF0001F4D1E484FF08008C5E90004C5E902489E
:102000002C6187146C61C5E906472846FEF7B0FFCE
:1020100008B1FEF743FC75636E62154D13484435F5
:10202000143801C51020A5E81101114845F81049E0
:1020300044306C61C5E90647FEF79AFF08B1FEF728
:102040002DFC35630022114627206E62FFF7F4FA5B
:102050002720FFF7E3FAA4E7004400400010024005
:102060000008014000480040000C014030000240E0
:10207000A4050020F8B5044690F83A0020283CD189
:10208000C1B3BAB394F83800012836D0012084F8DF
:102090003800A162A2850025E563222084F83A0079
:1020A000636B17489862636B1648D862636B164877
:1020B0001863606B134645630846666B21680246E9
:1020C0003046091DFEF782FF2068016841680091D3
:1020D00084F83850C16841F48071C160206841695A
:1020E00041F0010141612068416941F040014161D5
:1020F0000020F8BDFFE70120FBE70220F9E7000020
:102100009F290008DB2900085529000870477047FF
:102110002DE9F843044690F839001F4616460D464F
:10212000202850D1A5B19EB194F8380001284AD09A
:10213000012084F838004FF00008C4F83C802120CA
:1021400084F83900FFF77CF8A6848146E68426E00F
:102150000120BDE8F883E08C401EE084A0684B4677
:10216000B0F5805F4FF000024FF0800120460097ED
:1021700003D000F026FDE8B90DE000F022FDC8B95B
:1021800028882168C0F308004860206908B16D1CE8
:1021900005E0AD1C03E0216815F8010B4860E08CF8
:1021A0000028D8D14B46002240212046009700F05D
:1021B00008FD08B10320CCE7202084F8390084F81A
:1021C00038800020C5E70220C3E77047FEE70168BA
:1021D0004A69D24352050FD46FF480624A610021EC
:1021E00040F8301F202242738173026942F00402DA
:1021F000026101730120704700207047F8B5044662
:10220000C06A1E460D461746082807D0012805D08B
:1022100010F5803F02D0206B122804D1206801689D
:1022200041F480710160134600224FF001112046F5
:10223000009600F04DF808BB2069B0F5804F0ED035
:102240000620216800EAD51040F0F000086133460E
:102250003A460B49204600F06FF878B902E005F0E5
:10226000FE0000E0E8B221680861054933463A46BD
:10227000891F204600F060F8002800D00120F8BD3A
:102280000800010070B516460D4604460DE02046D4
:10229000FFF79DFF08B1012070BD681C05D0FEF757
:1022A000CFFF801BA84207D835B120684069C043E2
:1022B0004007ECD4002070BD002044F8300F2021EE
:1022C0006173A073216941F0200121612073E2E76D
:1022D0002DE9F0471E4690460D460446C1F30747D8
:1022E000DDF8209008E0701C06D0FEF7A9FFA0EBF7
:1022F0000900B0420FD876B12068012F18D080694C
:1023000025EA00000004000C14D000214145EAD069
:102310000020BDE8F087002044F8300F20216173D1
:10232000A073216941F02001216120730120F0E7B1
:102330004069E5E70121E9E72DE9F0479A46914632
:102340000E46044600254FF02008C1F3074725E05C
:1023500020684069C043400514D42068016841F4F6
:102360000071016021686FF480604861256384F822
:102370003D8084F83E50206C40F00400206484F8D6
:102380003C501FE0B9F1FF3F08D0FEF759FFA0EB2A
:102390000A0149450CD8B9F1000F09D02068012F76
:1023A00013D0806926EA00000004000C0BD0CFE7B0
:1023B00044F8305F84F80D80A573206940F0200058
:1023C000206125730120BDE8F0874069EAE770B518
:1023D00016460D4604460DE02046FFF7F8FE08B10C
:1023E000012070BD681C05D0FEF72AFF801BA842A3
:1023F00007D835B120684069C0430006ECD40020FE
:1024000070BD002044F8300F20216173A073216952
:1024100041F0200121612073E2E70000FEB50025B4
:10242000174800950195154902950160891581604D
:10243000057301240475022606614FF4602145608E
:10244000C0E90641FEF7AEFA08B1FEF727FA05200B
:102450008DE8310069460A48FEF722FA08B1FEF716
:102460001DFA0420CDE9000669460548FEF718FA72
:10247000002801D0FEF712FAFEBD00000024014042
:10248000A00400200D4808B5416941F001014161F7
:102490004069002200F00100009011460C20FFF777
:1024A000CBF80C20FFF7BAF8002211460D20FFF7F9
:1024B000C3F8BDE808400D20FFF7B0B80010024097
:1024C0002DE9F04385B00026424800960196029619
:1024D0000396816941F010018161816901F0100169
:1024E0000491816941F020018161816901F020013D
:1024F0000491816941F004018161816901F0040165
:102500000491816941F0080181618069DFF8C89018
:1025100000F008000490002248F680614846FEF76B
:1025200089FEDFF8B880002241F2FA014046FEF74A
:1025300081FE4FF46040CDE90006694628480296C6
:10254000FEF77CFD41F243100327CDE90007694601
:102550004846FEF773FD02258020012403958DE88F
:10256000510069464846FEF769FDCDE900466946D7
:1025700040460296FEF762FDCDE9005469464046AA
:10258000CDE90245FEF75AFD4EF20400CDE9000701
:1025900069464046FEF752FD41F2F8008DE83100F1
:1025A000694640460395FEF749FD4FF460608DE8AB
:1025B0003100694648460395FEF740FDE003CDE94A
:1025C000000469464846CDE90245FEF737FD05B0EF
:1025D000BDE8F0830010024000080140000C0140FB
:1025E000001001400D4810B50B4901600C494160D5
:1025F00000214FF480428160C0E903124161816192
:10260000C1610162FEF722FE002803D0BDE8104040
:10261000FEF744B910BD000000540040D004002073
:10262000A08601000C4810B50A4901604FF4E13161
:102630004160002181600C22C160C0E90412816107
:10264000C161FFF74BFC002803D0BDE81040FEF746
:1026500025B910BD00440040240500200C4810B5E9
:102660000A4901604FF416514160002181600C223B
:10267000C160C0E904128161C161FFF72FFC00282D
:1026800003D0BDE81040FEF709B910BD0048004076
:1026900064050020FEE77047704710B50446FEF75A
:1026A000CFFD2168401A10BD10B50446FEF7C8FDE5
:1026B000206010BD7047FEF759BF30B593B0282198
:1026C0006846FDF758FD14210AA8FDF754FD0024C3
:1026D00001200F9410941194010412948DE81300BA
:1026E00004904FF4E010CDE90810022507956846E4
:1026F000FFF79AF90F20CDE90A056802CDE90C40F1
:1027000002210AA80E94FFF7A3F8A80311900F95D1
:102710000FA8FFF727F813B030BD00000D4801687F
:1027200041F00101016041680B4A114041600168BC
:102730000A4A11400160016821F48021016041686A
:1027400021F4FE0141604FF41F0181600449C00380
:1027500008607047001002400000FFF8FFFFF6FE1F
:1027600008ED00E02DE9F84F5248FFF796FF44F6D8
:102770002061514C88420CD94E48FFF795FF4FA07D
:1027800000F068FA94F80814601C00F0B9FD00F03D
:1027900049FEB4F80A04B4F808144FF0000988425E
:1027A00008D009D9A4F80A94A4F808944FF48070CA
:1027B000A4F80404BDE8F88F3F4E06F10106815DE0
:1027C000FF2903D1711C415C552903D0401CA4F89A
:1027D0000A04EFE73849C91C415C01F1040808F01C
:1027E000FF0781193A463A48FDF7ACFC39463848AC
:1027F00000F0ECFC2F4D02461C3DB4F80A14A879F9
:10280000DFF8CCA081420DD0E019085C00900AEB03
:10281000070010F8013C2FA000F01CFA3946504682
:1028200000F06EFDB4F80A04E119A871415C0AEBEE
:10283000070010F8010C814210D032A000F00AFA13
:10284000E879401E10F0FF00E871B3D1B4F80A0433
:10285000401CA4F80A040A20E871ABE71C4A08F0FF
:10286000FF0100206971153A08E000BFB4F80A348E
:102870009F5D17545B1CA4F80A34401C8842F5DBAA
:10288000D01CFDF7A3FEB4F8080408B9A4F80A9414
:102890000F494FF6FF736A7915392448FFF738FC62
:1028A00023A000F0D7F96979BDE8F84F084815383A
:1028B00000F026BD1C000020500000200D0A4254EC
:1028C000496E666F2E5278446174613A20000000B0
:1028D000710400200D0A73746172742025642066EF
:1028E000726F6D2074656D706275663A20636B73EC
:1028F000756D3D253032782D253032782D253032DA
:10290000780D0A000D0A436865636B53756D2045A9
:1029100072726F722C207265636569766520756EC0
:10292000636F6D706C6574652E2E2E00640500203B
:102930000D0A4254487561727420736E65643A20C2
:102940000000000010B5406A0021C185C184FFF776
:102950003BFA10BD70B5446A2068406994F839109C
:10296000C0F3C0100025212904D118B1E584204608
:1029700000F046F82068406994F83A10C0F38010DF
:10298000222904D118B1E585204600F02BF8E06B30
:1029900040F01000E0632046FFF716FA70BD10B556
:1029A0000146406A09680968890613D40021C18577
:1029B0000168CA6822F48072CA6001684A6922F01C
:1029C00001024A6101684A6922F040024A612021FD
:1029D00080F83A10FFF79AFB10BD10B5406AFFF778
:1029E00096FB10BD0168CA6822F49072CA60016843
:1029F0004A6922F001024A61202180F83A107047AA
:102A00000168CA6822F0C002CA60202180F839102B
:102A1000704710B590F83A10222901D0022010BD5D
:102A20008168B1F5805F11D00169002901681FD06C
:102A3000496801F07F03816A4A1C82620B70C18D74
:102A4000491E0904090CC18518D02BE00269816A6E
:102A5000002A0268526805D0D2B20A80816A491CF5
:102A60008162ECE7C2F308020A80816A891CF7E7F9
:102A70004A68816A4B1C83620A70E0E70168CA6891
:102A800022F02002CA600168CA6822F48072CA601B
:102A900001684A6922F001024A61202180F83A1057
:102AA000FFF734FB002010BD2DE9F041044600681B
:102AB0000169E26821F44051114301612169A06874
:102AC0000843616908432168CA6841F20C639A436C
:102AD0000243CA6020684169A26921F44071114330
:102AE00041611E49206864253226884202D1FEF7E2
:102AF00055FF01E0FEF742FF00EBC00101EB0011C2
:102B000060686FF018078000B1FBF0F2B2FBF5F2DD
:102B1000B1FBF0F37A4303EB8202B1FBF0F306EB77
:102B20000212B2FBF5F2B3FBF5F302F0F00202EB96
:102B30000312B1FBF0F3B1FBF0F0B0FBF5F078431A
:102B400003EB800006EB0010B0FBF5F0216800F00D
:102B50000F0010448860BDE8F0810000003801409B
:102B600090F83910212901D0022070478168B1F511
:102B7000805F016A0BD04A1C0262026809785160CA
:102B8000C18C491E0904090CC1840ED017E00988C4
:102B90000268C1F30801516001690029016A02D08D
:102BA000491C0162ECE7891CFBE70168CA6822F056
:102BB0008002CA600068C16841F04001C160002025
:102BC00070472DE9F041984617460E460446069D8B
:102BD0001DE0681C1BD02DB1FEF732FBA0EB0800F6
:102BE000A84214D92068C16821F4D071C16020685E
:102BF000416921F001014161202084F8390084F805
:102C00003A00002084F838000320BDE8F0812068F5
:102C1000006836EA000004D00020B842D9D0002075
:102C2000F3E70120F9E70000084808B500680168EB
:102C3000C943C90604D4016840680090FDF7A2FDAD
:102C4000BDE808400148FFF7C1B800006405002056
:102C5000FEE700000FB4054B10B503A9044A029823
:102C600000F028F810BC5DF814FB0000ED310008FE
:102C70004C0000200907090E002804DB00F1E020C9
:102C800080F80014704700F00F0000F1E02080F899
:102C9000141D704702E008C8121F08C1002AFAD1AB
:102CA00070477047002001E001C1121F002AFBD1CC
:102CB000704700002DE9FF4F8DB00F4605460026F6
:102CC00006E025280BD0DDE90F1290476D1C761C1D
:102CD00028780028F5D111B03046BDE8F08F0024E7
:102CE000A246A1460122EC4900E0044315F8013F49
:102CF000203B02FA03F00842F7D128782A2810D0A6
:102D00006FF02F022878A0F13001092914D80AEBBE
:102D10008A0102EB410144F0020400EB010A6D1C40
:102D2000F0E701CF5FEA000A03D544F40054CAF18A
:102D3000000A44F002046D1C28782E2817D115F8DB
:102D4000010F44F004042A280ED06FF02F022878D7
:102D5000A0F1300109290AD809EB890102EB4101F0
:102D600000EB01096D1CF2E757F8049B6D1C2878F5
:102D70006C280FD006DC4C2817D068280DD06A28A4
:102D800014D104E0742810D07A280FD10DE044F457
:102D900000140AE044F4801401E044F4401469781B
:102DA000814202D104F580146D1C6D1C2A786E2AB4
:102DB0001FD00CDC632A31D004DC002A8BD0582AC7
:102DC00011D1A3E0642A68D0692A0CD165E0732A86
:102DD0002ED004DC6F2A73D0702A04D19BE0752AB0
:102DE0006FD0782A6ED01046DDE90F129047761C1E
:102DF00050E1C4F30250022806D0032809D0042869
:102E000001CF09D0066045E101CFF117C0E90061AB
:102E100040E101CF06803DE106703BE117F8040B6D
:102E20008DF8000000208DF80100EB46012003E042
:102E300057F804BB4FF0FF3061074FF0000102D498
:102E40000DE008F10101884649450FDA8045F8DBBD
:102E50001BF808100029F4D108E008F101018846A8
:102E60008142FADB1BF808100029F6D1DDE90F23B7
:102E7000AAEB08008146214600F036F9304400EB09
:102E8000080604E0DDE90F121BF8010B9047B8F1CA
:102E90000108F7D221464846F7E00A21C4F302535D
:102EA0004FF0000B0891022B04D001CFC117032B68
:102EB00009D00AE0FF1D27F00707F7E8020108E044
:102EC00032E01FE020E000B2C117042B01D140B274
:102ED000C117031E71F1000307DA4FF0000CD0EBAD
:102EE0000C006CEB01012D2302E0230504D52B23FC
:102EF0008DF82430012303E0E30701D02023F7E716
:102F0000984658E00A2110E010210EE010204FF002
:102F1000000B08900CE010214FF0000B44F004046B
:102F20004FF00809089103E008214FF0000B0891C9
:102F3000C4F30253022B04D001CF0021032B06D08F
:102F400006E0FF1D27F00707F7E8020103E080B263
:102F5000042B00D1C0B24FF0000823072BD5702AF4
:102F600007D0DDF820C08CF0100C5CEA0B0C05D00B
:102F70000EE040238DF82430012308E050EA0103DD
:102F800006D030238DF824308DF825200223984672
:102F9000DDF820C08CF0080C5CEA0B0C0BD150EA79
:102FA000010301D1630706D530238DF824304FF09B
:102FB0000108A9F10109582A04D038A20B9208AAE5
:102FC0000A920BE03AA2F9E75B46089AFDF7D0F9BE
:102FD0000B9B9B5C0A9A521E0A92137050EA0102E4
:102FE000F2D10A98ADEB000000F1200B600702D58A
:102FF00024F4803401E04FF00109D94502DDA9EB4A
:103000000B0000E0002000EB0B0141440890AAEB0C
:10301000010AE00306D4DDE90F232146504600F003
:1030200063F806444FF0000908E009A911F8090007
:10303000DDE90F12904709F10109761CC145F4DB67
:10304000E0030CD5DDE90F232146504600F04CF893
:10305000064404E0DDE90F1230209047761C089901
:10306000481E08900029F5DC08E00A980A990078C3
:10307000491C0A91DDE90F129047761CBBF1000153
:10308000ABF1010BF1DC21465046DDE90F2300F0E6
:1030900019F806446D1C1BE6092801003031323353
:1030A0003435363738396162636465660000000084
:1030B000303132333435363738394142434445466E
:1030C000000000002DE9F041044600251E46174689
:1030D000880404D405E039462020B0476D1C641EE6
:1030E000F9D52846BDE8F0812DE9F04104460025D8
:1030F0001E469046C80301D5302700E020278804EB
:1031000004D505E041463846B0476D1C641EF9D52C
:103110002846BDE8F081000001210148FEF77EB895
:10312000000C014010B500200E4A014602EB41039D
:10313000491C9B88C9B218440529F7D3FDF7FAF852
:103140000949FDF7ADF80949FDF778F80849FDF799
:1031500075F86FF00B01FDF7E1F8BDE81040054987
:10316000FDF79EB8860400200000A040000040410A
:103170000000B0403333534010B500200F4A0146E1
:1031800002EB4103491CDB89C9B218440529F7D376
:10319000FDF7D0F80A49FDF783F80A4C2146FDF700
:1031A0004DF86FF00B01FDF7B9F80749FDF746F848
:1031B0002146BDE81040FDF773B8000086040020EA
:1031C0000000A040000040400000904130B50346A0
:1031D000002002224C1E03E09D5C521C2844C0B219
:1031E000A242F9DB194401F8010C30BD13B54FF6CA
:1031F000FF73012269460248FEF78AFF00981CBD52
:103200002405002070B50C4D4FF400512846FEF700
:1032100005F80A4C4FF4804120702846FDF7FEFF68
:1032200060704FF400412846FDF7F8FFA070BDE83C
:10323000704000F085B90000001001402C00002013
:10324000FEF79CF9FFF739FAFFF73AF9FFF71AF999
:10325000FFF7E8F9FFF702FAFFF7E0F8FFF7C2F926
:1032600000F07EF800F0D6F800F09EF8FAE70000D3
:1032700000F001024FF480510148FDF7DBBF000070
:10328000000C014000F0010202210148FDF7D2BF0D
:10329000000C014000F001024FF400410148FDF72D
:1032A000C9BF00000008014030B40346124C134867
:1032B00001F00102092B1CD2DFE803F01B05080C0A
:1032C0000F11131517004FF4006101E04FF48061F6
:1032D00020460BE04FF40071FAE7102106E02021B0
:1032E00004E0402102E0802100E0082130BCFDF72D
:1032F000A1BF30BC7047000000080140000C014035
:1033000070B50D460646002404E0315D05A0FFF7C8
:10331000A1FC641CAC42F8DBBDE8704004A0FFF7E0
:1033200099BC000020203078253032780000000061
:103330002E0D0A0070B514460E460546FCF7FFFF39
:10334000C0B23070FCF7F6FF2946FCF774FF034962
:10335000FCF774FFFCF7F3FF207070BD0000C8425B
:1033600010B50120FFF796FF0120FFF78BFFFDF757
:10337000CBF90020FFF77CFF0122BDE8104080213F
:103380000148FDF757BF00000008014010B5FFF7E6
:1033900039FFFFF7C1FE0349C870BDE81040FDF7D3
:1033A00071B800002C00002010B51348FFF775F924
:1033B000114C103CB0F57A7F08D90F48FFF774F92B
:1033C000607818B180210D48FDF72DFF0A48001DD7
:1033D000FFF763F942F2107188420BD90648001DCD
:1033E000FFF762F9A16906A0491CA161BDE8104080
:1033F000FFF730BC10BD00001000002000080140A5
:103400000D0A2072756E6E696E672025642830295A
:103410002073000010B5FFF7B9FFBDE81040FFF7BB
:10342000A1B9000000B5164887B00079002824D063
:1034300018216846FCF79FFEFF208DF800005520FC
:103440008DF8010004208DF8020003208DF80300A0
:103450000C4902208DF8040008788DF805004978A1
:1034600009308DF8061008448DF8070008224FF641
:10347000FF7369460448FEF74BFE07B000BD00002D
:1034800000000020860400206405002000B51648D6
:1034900087B0C078002824D018216846FCF76BFE5E
:1034A000FF208DF8000055208DF8010004208DF8D4
:1034B000020005208DF803000C4901208DF804005E
:1034C00088788DF80500C9780A308DF80610084410
:1034D0008DF8070008224FF6FF7369460448FEF78F
:1034E00017FE07B000BD0000000000208604002089
:1034F0006405002010B586B0044618216846FCF724
:103500003AFEFF208DF8000055208DF801000320C1
:103510008DF802008DF8030001208DF804008DF86D
:103520000540E41D8DF8064007224FF6FF736946FB
:103530000248FEF7EDFD06B010BD00006405002056
:1035400070B5254D0020A5F12C042A78A97842EA0F
:1035500081016A7840EA42000143207ACEB2864275
:103560000AD026723046FFF7C5FFAB786A78297813
:103570001AA0FFF76FFB10E017480C38FFF78DF823
:1035800040F6B831884208D913480C38FFF78CF858
:10359000A07810B13046FFF7ADFF0F480838FFF7AD
:1035A0007CF8B0F57A7F15D90B480838FFF77CF81E
:1035B000FFF76CFF1048627A817891420AD0C27896
:1035C000A07A824206D06172A272BDE870400BA060
:1035D000FFF740BB70BD00002C0000200D0A2073D7
:1035E00077313A25642C207377323A25642C207386
:1035F00077333A2564000000860400200D0A7472B7
:10360000616E736665722053656E736572205061DA
:1036100020546F204170703A25642E25645061005B
:10362000FF55020101000000000000000000000042
:103630000000000000000000000000000001020384
:10364000040607080900000000010203040000004E
:10365000703600080000002050000000942C000884
:10366000C036000850000020E0090000A42C00082B
:10367000000000000000030A0000000164050020B3
:10368000000000000000000000000000000000003A
:10369000000000000000000000000000000000002A
:1036A0000000000000000000000000000100000019
:1036B00010000000000000000024F40000000000E2
:04000005080000ED02
:00000001FF
